:020000040800F2
:1000000000500020E90500088D0500089305000850
:10001000990500089F050008A505000800000000DC
:10002000000000000000000000000000410900087E
:10003000AB05000800000000210B0008690B000858
:1000400031060008310600083106000831060008B4
:1000500031060008310600083106000831060008A4
:100060003106000831060008310600083106000894
:100070003106000831060008310600083106000884
:100080003106000831060008310600083106000874
:100090003106000831060008310600083106000864
:1000A00031060008B90500083106000831060008CD
:1000B0003106000831060008310600083106000844
:1000C0003106000831060008310600083106000834
:1000D0003106000831060008310600083106000824
:1000E000CD050008310600083106000800000000B8
:1000F0000000000000000000000000000000000000
:0C01000000000000000000005FF808F1A3
:1001100010B5054C237833B9044B13B10448AFF341
:1001200000800123237010BD60000020000000004B
:100130005C30000808B5034B1BB103490348AFF31B
:10014000008008BD00000000640000205C30000852
:1001500080B485B000AFF860B9607A60FB68064A89
:100160001A60BB68054A1A607B6880221A6000BF6B
:100170001437BD4680BC70477C0000201C01002065
:10018000B0B588B000AF02F05FFE00F01DF800F0DF
:1001900087F800F05BF80A4B3C1D1D460FCD0FC4DD
:1001A00095E8070084E807003B1D0021184600F091
:1001B0005EFA0346034A136000F052FAFEE700BFFE
:1001C000803000086403002080B590B000AF07F1D4
:1001D000180328220021184602F068FE3B1D002269
:1001E0001A605A609A60DA601A610223BB610123C7
:1001F000BB621023FB6202237B630023BB634FF4CB
:100200006013FB6307F11803184601F0B5FE0346BF
:10021000002B01D000F0CCF80F237B600223BB60E1
:100220000023FB604FF480633B6100237B613B1D37
:100230000221184602F022F90346002B01D000F0FB
:10024000B7F800BF4037BD4680BD000080B500AFA5
:10025000114B124A1A60104B4FF4E1325A600E4BA8
:1002600000229A600C4B0022DA600B4B00221A61CC
:10027000094B0C225A61084B00229A61064B00225E
:10028000DA61054802F002FD0346002B01D000F0C0
:100290008FF800BF80BD00BF1C0300200044004059
:1002A00080B588B000AF07F1100300221A605A60D1
:1002B0009A60DA602D4B9B692C4A43F010039361DE
:1002C0002A4B9B6903F01003FB60FB68274B9B697B
:1002D000264A43F020039361244B9B6903F02003DB
:1002E000BB60BB68214B9B69204A43F004039361C8
:1002F0001E4B9B6903F004037B607B681B4B9B696F
:100300001A4A43F008039361184B9B6903F00803F2
:100310003B603B6800222021154801F0F3FD4FF4BB
:1003200000533B61134B7B610023BB6107F110035A
:100330001946114801F062FC20233B6101237B61D7
:100340000023BB610223FB6107F110031946084833
:1003500001F054FC00220521282001F024FC282073
:1003600001F03DFC00BF2037BD4680BD00100240BB
:1003700000080140000011100010014080B582B05B
:1003800000AF7860012000F0BEF9FBE780B582B0D5
:1003900000AF78607B681B68044A934201D102F089
:1003A00069FD00BF0837BD4680BD00BF002C01407D
:1003B00080B400AF72B600BFFEE7000080B584B025
:1003C00000AF184B9B69174A43F001039361154B2B
:1003D0009B6903F00103BB60BB68124BDB69114AE8
:1003E00043F08053D3610F4BDB6903F080537B6094
:1003F0007B6800220F216FF0010001F0D4FB0A4B53
:100400005B68FB60FB6823F0E063FB60FB6843F024
:100410000073FB60044AFB68536000BF1037BD46A1
:1004200080BD00BF001002400000014080B588B0D0
:1004300000AF786007F1100300221A605A609A60DA
:10044000DA607B681B68154A934223D1144BDB6941
:10045000134A43F40033D361114BDB6903F40033D7
:10046000FB60FB680E4B9B690D4A43F004039361EC
:100470000B4B9B6903F00403BB60BB680C233B611F
:1004800002237B610223FB6107F110031946054833
:1004900001F0B4FB00BF2037BD4680BD00440040E2
:1004A000001002400008014080B58CB000AF7860B9
:1004B0000023BB6200237B62002387F82F302E4B82
:1004C0009B692D4A43F4006393612B4B9B6903F4B2
:1004D0000063BB60BB6807F10C0207F11003114613
:1004E000184602F03BF902F025F9B862BB6A234ACC
:1004F000A2FB03239B0C013B7B62214B214A1A6028
:100500001F4B40F2E732DA601D4A7B6A53601C4B96
:1005100000221A611A4B00229A60194B00229A613C
:10052000174802F07BF9034687F82F3097F82F30F1
:10053000002B1BD1124802F0C9F9034687F82F306F
:1005400097F82F30002B11D1192001F048FB7B6860
:100550000F2B08D800227968192001F024FB0A4AE1
:100560007B68136002E0012387F82F3097F82F3063
:1005700018463037BD4680BD0010024083DE1B4365
:1005800068030020002C01400800002080B400AF68
:10059000FEE780B400AFFEE780B400AFFEE780B4B2
:1005A00000AFFEE780B400AFFEE780B400AF00BF4D
:1005B000BD4680BC7047000080B500AF024802F025
:1005C000D7F900BF80BD00BF6803002080B500AF31
:1005D0004FF4005001F0AEFC00BF80BD80B400AF0E
:1005E00000BFBD4680BC7047FFF7F8FF0B480C49C1
:1005F0000C4A002302E0D458C4500433C4188C427F
:10060000F9D3094A094C002301E013600432A242E5
:10061000FBD302F0A9FCFFF7B3FD704700000020F8
:1006200060000020D8300008600000204012002048
:10063000FEE780B485B000AF0346FB800023FB607B
:10064000B7F90630842B05D0B7F90620FB681344B0
:100650000333FB60FB6818461437BD4680BC704707
:1006600080B500AF00F072FE0023184680BDF0B5E3
:1006700089B004AF786039607B685B69002B20D05B
:100680007B689B69002B1CD07B685C687B681D685D
:100690007B681E697B68B3F908301846FFF7C9FF0D
:1006A00001467B685B697A689269029201930091C6
:1006B0003B6832462946204600F072FC0346FB6048
:1006C0001CE07B685C687B681D687B681B699EB268
:1006D0007B68B3F908301846FFF7ABFF024607F115
:1006E0000C03019300923B6832462946204600F0F5
:1006F000B3FC0346012B01D0002300E0FB68184641
:100700001437BD46F0BD80B584B000AF78607B681B
:10071000FB60FB68002B01D0FB6800E0012318465A
:1007200000F0E0FD002318461037BD4680BD80B4C0
:1007300083B000AF78607B6803F108027B685A6081
:100740007B684FF0FF329A607B6803F108027B6898
:10075000DA607B6803F108027B681A617B6800221B
:100760001A6000BF0C37BD4680BC704780B483B0B0
:1007700000AF78607B6800221A6100BF0C37BD466D
:1007800080BC704780B485B000AF786039607B680A
:100790005B68FB603B68FA685A60FB689A683B6874
:1007A0009A60FB689B683A685A60FB683A689A608E
:1007B0003B687A681A617B681B685A1C7B681A6000
:1007C00000BF1437BD4680BC704780B485B000AF11
:1007D000786039603B681B68BB60BB68B3F1FF3F62
:1007E00003D17B681B69FB600CE07B680833FB600E
:1007F00002E0FB685B68FB60FB685B681B68BA68CB
:100800009A42F6D2FB685A683B685A603B685B685C
:100810003A689A603B68FA689A60FB683A685A607E
:100820003B687A681A617B681B685A1C7B681A608F
:1008300000BF1437BD4680BC704780B485B000AFA0
:1008400078607B681B69FB607B685B687A6892688C
:100850009A607B689B687A6852685A60FB685B683C
:100860007A689A4203D17B689A68FB685A607B6811
:1008700000221A61FB681B685A1EFB681A60FB683D
:100880001B6818461437BD4680BC704780B485B0DD
:1008900000AFF860B9607A60FB68043BFB60FB68FE
:1008A0004FF080721A60FB68043BFB60BB6823F06A
:1008B0000102FB681A60FB68043BFB60084AFB68A6
:1008C0001A60FB68143BFB607A68FB681A60FB687F
:1008D000203BFB60FB6818461437BD4680BC704760
:1008E000E508000880B485B000AF00237B60124BA0
:1008F0001B68B3F1FF3F0AD04FF0500383F3118818
:10090000BFF36F8FBFF34F8FFB6000BFFEE74FF069
:10091000500383F31188BFF36F8FBFF34F8FBB601A
:1009200000BF00BF7B68002BFCD000BF00BF1437A6
:10093000BD4680BC704700BF0400002000000000DE
:10094000074B19680868B0E8F00F80F30988BFF317
:100950006F8F4FF0000080F311884EF00D0E70473E
:10096000D00F002000BF00BF06480068006880F379
:10097000088862B661B6BFF34F8FBFF36F8F00DF99
:1009800000BF00BF08ED00E080B584B000AF324B7F
:10099000FB60FB681B78DBB27B60FB68FF221A7090
:1009A000FB681B78DBB2FB70FB78DBB203F0500313
:1009B000DAB22A4B1A702A4B07221A6009E0284B38
:1009C0001B68013B264A1360FB78DBB25B00DBB29D
:1009D000FB70FB78DBB203F08003802BEFD0204B61
:1009E0001B68C3F10703042B0AD04FF0500383F3B5
:1009F0001188BFF36F8FBFF34F8FBB6000BFFEE75F
:100A0000174B1B681B02164A1360154B1B6803F437
:100A1000E063134A13607B68DAB2FB681A70114B0B
:100A20001B68104A43F4700313600E4B1B680D4A99
:100A300043F07043136000F0B9F80B4B00221A60CA
:100A4000FFF792FF00F054FEFFF74CFF002318461B
:100A50001037BD4680BD00BF00E400E0B0030020B9
:100A6000B403002020ED00E00400002080B483B037
:100A700000AF4FF0500383F31188BFF36F8FBFF3C4
:100A80004F8F7B6000BF0F4B1B6801330D4A136013
:100A90000C4B1B68012B0FD10B4B1B68DBB2002BDF
:100AA0000AD04FF0500383F31188BFF36F8FBFF369
:100AB0004F8F3B6000BFFEE700BF0C37BD4680BCD8
:100AC000704700BF0400002004ED00E080B483B054
:100AD00000AF114B1B68002B0AD14FF0500383F37A
:100AE0001188BFF36F8FBFF34F8F7B6000BFFEE7AE
:100AF000094B1B68013B084A1360074B1B68002B1E
:100B000005D100233B603B6883F3118800BF00BF21
:100B10000C37BD4680BC7047040000200000000078
:100B2000EFF30980BFF36F8F0D4B1A6820E9F00FC8
:100B300010602DE908404FF0500080F3118800F05C
:100B4000D7FD4FF0000080F31188BDE80840196818
:100B50000868B0E8F00F80F30988BFF36F8F704723
:100B6000D00F002000BF00BF80B582B000AF4FF0B3
:100B7000500383F31188BFF36F8FBFF34F8F7B60F8
:100B800000BF00F0F7FC0346002B03D0064B4FF0EC
:100B900080521A6000233B603B6883F3118800BFDA
:100BA00000BF0837BD4680BD04ED00E080B400AF53
:100BB0000A4B00221A600A4B00221A60094B1B687C
:100BC000094AA2FB03239B09084A013B1360034B1C
:100BD00007221A6000BFBD4680BC704710E000E0ED
:100BE00018E000E000000020D34D621014E000E0A7
:100BF00080B58AB000AF78600023FB6100F010FC84
:100C0000584B1B68002B01D100F010F9564B1A68A5
:100C10007B681340002B40F08E807B68002B1DD03A
:100C200008227B6813447B607B6803F00703002B7A
:100C300014D07B6823F0070308337B607B6803F0E4
:100C40000703002B0AD04FF0500383F31188BFF342
:100C50006F8FBFF34F8F7B6100BFFEE77B68002B78
:100C600069D0424B1B687A689A4264D8404B3B6219
:100C70003F4B1B687B6204E07B6A3B627B6A1B68BC
:100C80007B627B6A5B687A689A4203D97B6A1B68DD
:100C9000002BF1D1334B1B687A6A9A424BD03B6AE6
:100CA0001B6808221344FB617B6A1A683B6A1A605E
:100CB0007B6A5A687B68D21A08235B009A421FD964
:100CC0007A6A7B681344BB61BB6903F00703002B9E
:100CD0000AD04FF0500383F31188BFF36F8FBFF337
:100CE0004F8F3B6100BFFEE77B6A5A687B68D21A70
:100CF000BB695A607B6A7A685A60B86900F0F8F894
:100D00001A4B1A687B6A5B68D31A184A1360174B30
:100D10001A68184B1B689A4203D2144B1B68154A79
:100D200013607B6A5A68104B1B681A437B6A5A60CF
:100D30007B6A00221A6000F081FBFB6903F0070365
:100D4000002B0AD04FF0500383F31188BFF36F8F4D
:100D5000BFF34F8FFB6000BFFEE7FB6918462837E3
:100D6000BD4680BDC00F0020CC0F0020C40F002066
:100D7000B80F0020C80F002080B586B000AF7860A3
:100D80007B687B617B68002B48D008235B427A69D3
:100D900013447B617B693B613B695A68214B1B684B
:100DA0001340002B0AD14FF0500383F31188BFF397
:100DB0006F8FBFF34F8FFB6000BFFEE73B691B687F
:100DC000002B0AD04FF0500383F31188BFF36F8FCD
:100DD000BFF34F8FBB6000BFFEE73B695A68114B02
:100DE0001B681340002B19D03B691B68002B15D1E1
:100DF0003B695A680B4B1B68DB431A403B695A60DE
:100E000000F00EFB3B695A68074B1B681344064A07
:100E10001360386900F06CF800F010FB00BF183761
:100E2000BD4680BDCC0F0020C40F002080B485B02B
:100E300000AF4FF44063BB60274BFB60FB6803F0DF
:100E40000703002B0CD0FB680733FB60FB6823F023
:100E50000703FB60BA68FB68D31A1F4A1344BB60E0
:100E6000FB687B601D4A7B6813601C4B00225A6044
:100E70007B68BA681344FB600822FB689B1AFB601E
:100E8000FB6823F00703FB60FB68154A1360144BF3
:100E90001B6800225A60124B1B6800221A607B6894
:100EA0003B603B68FA68D21A3B685A600C4B1A6880
:100EB0003B681A603B685B680A4A13603B685B6882
:100EC000094A1360094B4FF000421A6000BF143703
:100ED000BD4680BC704700BFB8030020B80F00209B
:100EE000C00F0020C80F0020C40F0020CC0F00202E
:100EF00080B485B000AF7860274BFB6002E0FB68F0
:100F00001B68FB60FB681B687A689A42F7D8FB682D
:100F1000BB60FB685B68BA6813447A689A4208D180
:100F2000FB685A687B685B681A44FB685A60FB6818
:100F30007B607B68BB607B685B68BA681A44FB684F
:100F40001B689A4218D1FB681A68144B1B689A42B6
:100F50000DD07B685A68FB681B685B681A447B6825
:100F60005A60FB681B681A687B681A6008E00B4BC4
:100F70001A687B681A6003E0FB681A687B681A606D
:100F8000FA687B689A4202D0FB687A681A6000BFF0
:100F90001437BD4680BC7047B80F0020C00F00203A
:100FA00080B58EB004AFF860B9607A603B607B6B4F
:100FB000002B0AD14FF0500383F31188BFF36F8FDA
:100FC000BFF34F8F3B6200BFFEE7BB6B002B0AD124
:100FD0004FF0500383F31188BFF36F8FBFF34F8F30
:100FE000FB6100BFFEE7A0233B613B69A02B0AD059
:100FF0004FF0500383F31188BFF36F8FBFF34F8F10
:10100000BB6100BFFEE7BB6B002B1ED07B6B002BD0
:101010001BD0BB6B7B627B6A7A6B1A637B6A022292
:1010200083F89D20002303937B6A029307F1140346
:1010300001933B6B00933B687A68B968F86800F0ED
:1010400051F8786A00F0E4F801E000237B617B69E5
:1010500018462837BD4680BD80B58CB004AFF86017
:10106000B9603B601346FB80FB889B001846FFF786
:10107000BFFD78617B69002B0ED0A020FFF7B8FD83
:10108000F861FB69002B03D0FB697A691A6305E0FC
:101090007869FFF771FE01E00023FB61FB69002B1B
:1010A00017D0FB69002283F89D20FA880023039360
:1010B000FB690293FB6A0193BB6A00933B68B968C2
:1010C000F86800F00FF8F86900F0A2F80123BB619E
:1010D00002E04FF0FF33BB61BB6918462037BD46C5
:1010E00080BD000080B588B000AFF860B9607A605C
:1010F0003B603B6B1A6B7B6803F18043013B9B00B9
:101100001344BB61BB6923F00703BB61BB6903F0F8
:101110000703002B0AD04FF0500383F31188BFF36D
:101120006F8FBFF34F8F7B6100BFFEE70023FB6132
:1011300012E0BA68FB69134419783A6BFB691344EF
:1011400034330A461A70BA68FB6913441B78002BC3
:1011500006D0FB690133FB61FB690F2BE9D900E085
:1011600000BF3B6B002283F84320BB6A062B01D9EA
:101170000623BB623B6BBA6ADA623B6BBA6A5A649B
:101180003B6B00229A643B6B04331846FFF7EEFA80
:101190003B6B18331846FFF7E9FA3B6B3A6B1A6161
:1011A000BB6AC3F107023B6B9A613B6B3A6B5A62B5
:1011B0003B6B0022C3F898203B6B002283F89C20F5
:1011C0003B6B4C334C220021184601F06FFE3B6B09
:1011D0000C4A1A653B6B0C4A5A653B6B0B4A9A6585
:1011E0003A68F968B869FFF751FB02463B6B1A6031
:1011F000FB6A002B02D0FB6A3A6B1A6000BF2037F3
:10120000BD4680BD0011002068110020D0110020D3
:1012100080B582B000AF7860FFF728FC2A4B1B68CE
:101220000133294A1360294B1B68002B09D1274A37
:101230007B681360244B1B68012B10D100F0D2FA9D
:101240000DE0234B1B68002B09D1204B1B68DA6A89
:101250007B68DB6A9A4202D81C4A7B6813601D4B8C
:101260001B6801331B4A13607B68DB6A01229A40CA
:10127000194B1B681343184A13607B68DA6A1346DC
:101280009B0013449B00154A1A447B68043319469B
:101290001046FFF777FAFFF719FC0D4B1B68002B80
:1012A0000ED00A4B1B68DA6A7B68DB6A9A4207D267
:1012B0000B4B4FF080521A60BFF34F8FBFF36F8F0D
:1012C00000BF0837BD4680BDD0100020D00F0020E1
:1012D000DC100020EC100020D8100020D40F0020DB
:1012E00004ED00E080B584B000AF78600023FB60BF
:1012F0007B68002B17D0134B1B68002B0AD04FF0D4
:10130000500383F31188BFF36F8FBFF34F8FBB6020
:1013100000BFFEE700F084F80021786800F028FBA9
:1013200000F08CF8F860FB68002B07D1064B4FF0FB
:1013300080521A60BFF34F8FBFF36F8F00BF10371B
:10134000BD4680BDF810002004ED00E080B58AB0F5
:1013500004AF0023BB6000237B603A46391D07F1D0
:1013600008031846FEF7F4FE39687B68BA680292F3
:1013700001930023009300230A4621492148FFF7E7
:101380000FFE0346204A13601F4B1B68002B02D040
:1013900001237B6101E000237B617B69012B1BD171
:1013A0004FF0500383F31188BFF36F8FBFF34F8F5C
:1013B0003B6100BF154B1B684C33154A1360154B3E
:1013C0004FF0FF321A60144B01221A60134B0022B7
:1013D0001A60FFF7D9FA0EE07B69B3F1FF3F0AD13B
:1013E0004FF0500383F31188BFF36F8FBFF34F8F1C
:1013F000FB6000BFFEE700BF1837BD4680BD00BFE1
:101400009C300008B5170008F4100020D00F002011
:101410005C000020F0100020DC100020D410002020
:1014200080B400AF044B1B680133034A136000BF54
:10143000BD4680BC704700BFF810002080B584B066
:1014400000AF0023FB600023BB60414B1B68002BF7
:101450000AD14FF0500383F31188BFF36F8FBFF3AE
:101460004F8F3B6000BFFEE7FFF700FB384B1B6868
:10147000013B374A1360364B1B68002B61D1354B5B
:101480001B68002B5DD02EE0334BDB68DB68FB6014
:10149000FB6818331846FFF7D0F9FB680433184689
:1014A000FFF7CBF9FB68DB6A01229A402B4B1B68E4
:1014B00013432A4A1360FB68DA6A13469B001344FD
:1014C0009B00274A1A44FB68043319461046FFF76D
:1014D00059F9FB68DA6A234B1B68DB6A9A4202D32C
:1014E000214B01221A601C4B1B68002BCCD1FB68DE
:1014F000002B01D000F018FA1C4B1B687B607B6846
:10150000002B10D000F036F80346002B02D0164B0B
:1015100001221A607B68013B7B607B68002BF1D164
:10152000124B00221A60104B1B68002B09D00123BC
:10153000BB600F4B4FF080521A60BFF34F8FBFF369
:101540006F8FFFF7C3FABB6818461037BD4680BDE2
:10155000F8100020D010002090100020D81000209B
:10156000D40F0020D00F0020E4100020E010002055
:1015700004ED00E080B586B000AF00237B61514BE5
:101580001B68002B40F08D804F4B1B6801333B6183
:101590004D4A3B6913603B69002B20D14B4B1B68C4
:1015A0001B68002B0AD04FF0500383F31188BFF360
:1015B0006F8FBFF34F8F3B6000BFFEE7434B1B684D
:1015C000FB60434B1B68414A1360414AFB68136050
:1015D000404B1B6801333F4A136000F0A5F93E4BB6
:1015E0001B683A699A424DD3384B1B681B68002B25
:1015F00001D1012300E00023002B04D0364B4FF033
:10160000FF321A603EE0314B1B68DB68DB68BB6071
:10161000BB685B687B603A697B689A4203D22E4A5A
:101620007B6813602EE0BB6804331846FFF705F9AA
:10163000BB689B6A002B04D0BB6818331846FFF7C1
:10164000FCF8BB68DB6A01229A40244B1B681343F9
:10165000224A1360BB68DA6A13469B0013449B005E
:101660001F4A1A44BB68043319461046FFF78AF82C
:10167000BB68DA6A1B4B1B68DB6A9A42B4D301234E
:101680007B61B1E7174B1B68DA6A154913469B006B
:1016900013449B000B441B68012B07D901237B617A
:1016A00004E0114B1B6801330F4A13600F4B1B689A
:1016B000002B01D001237B617B6918461837BD469A
:1016C00080BD00BFF8100020D4100020881000203A
:1016D0008C100020E8100020F0100020D81000200E
:1016E000D40F0020D00F0020E0100020E4100020D4
:1016F00080B487B000AF294B1B68002B03D0284B68
:1017000001221A6044E0264B00221A60254B1B6818
:10171000FB60FB68B3FA83F3FB72FB7AC3F11F0330
:101720007B6121497A6913469B0013449B000B445B
:101730001B68002B0AD14FF0500383F31188BFF3CD
:101740006F8FBFF34F8F7B6000BFFEE77A69134650
:101750009B0013449B00144A13443B613B695B6844
:101760005A683B695A603B695A683B6908339A4238
:1017700004D13B695B685A683B695A603B695B68A6
:10178000DB680A4A1360094B1B684C33084A136034
:1017900000BF1C37BD4680BC704700BFF81000205A
:1017A000E4100020D8100020D40F0020D00F00201B
:1017B0005C00002080B582B000AF786000F052F885
:1017C000064B1B68012BF9D9054B4FF080521A606C
:1017D000BFF34F8FBFF36F8FF0E700BFD40F002030
:1017E00004ED00E080B582B000AF00237B600CE028
:1017F0007A6813469B0013449B00124A1344184610
:10180000FEF795FF7B6801337B607B68062BEFD981
:101810000D48FEF78CFF0D48FEF789FF0C48FEF7D8
:1018200086FF0C48FEF783FF0B48FEF780FF0B4B4B
:10183000054A1A600A4B054A1A6000BF0837BD46C0
:1018400080BD00BFD40F0020601000207410002065
:1018500090100020A4100020BC1000208810002050
:101860008C10002080B582B000AF19E0FFF7FEF8C1
:10187000104BDB68DB687B607B6804331846FEF73F
:10188000DCFF0D4B1B68013B0B4A13600B4B1B68C5
:10189000013B0A4A1360FFF719F9786800F010F865
:1018A000064B1B68002BE1D100BF00BF0837BD46C7
:1018B00080BD00BFA4100020D0100020B810002070
:1018C00080B584B000AF78607B684C33184601F077
:1018D000F5FA7B6893F89D30002B08D17B681B6B71
:1018E0001846FFF749FA7868FFF746FA18E07B6870
:1018F00093F89D30012B03D17868FFF73DFA0FE094
:101900007B6893F89D30022B0AD04FF0500383F38D
:101910001188BFF36F8FBFF34F8FFB6000BFFEE7EF
:1019200000BF1037BD4680BD80B483B000AF0E4B02
:101930001B681B68002B01D1012300E00023002B52
:1019400004D00A4B4FF0FF321A6008E0064B1B68C8
:10195000DB68DB687B607B685B68044A136000BF00
:101960000C37BD4680BC704788100020F010002066
:1019700080B584B000AF78603960294B1B68FB608C
:10198000284B1B6804331846FEF757FF0346002B0D
:101990000BD1244B1B68DB6A012202FA03F3DA4302
:1019A000214B1B681340204A13607B68B3F1FF3F53
:1019B0000AD13B68002B07D01A4B1B680433194629
:1019C0001A48FEF7DFFE26E0FA687B681344BB6026
:1019D000144B1B68BA685A60BA68FB689A4209D20D
:1019E000134B1A680F4B1B68043319461046FEF759
:1019F000ECFE10E00F4B1A680A4B1B6804331946C3
:101A00001046FEF7E2FE0C4B1B68BA689A4202D2FF
:101A1000094ABB68136000BF1037BD4680BD00BFD8
:101A2000D4100020D00F0020D8100020BC100020BF
:101A30008C10002088100020F010002080B485B0A9
:101A400000AF78607B6803F00703FB600C4BDB683A
:101A5000BB60BA684FF6FF031340BB60FB681A0215
:101A6000BB68134343F0BF6343F40033BB60044AD5
:101A7000BB68D36000BF1437BD4680BC704700BF51
:101A800000ED00E080B400AF044BDB681B0A03F0FC
:101A900007031846BD4680BC704700BF00ED00E05C
:101AA00080B483B000AF0346FB7197F90730002B79
:101AB0000BDBFB7903F01F02064997F907305B093E
:101AC000012000FA02F241F8232000BF0C37BD4686
:101AD00080BC704700E100E080B483B000AF0346F3
:101AE0003960FB7197F90730002B0ADB3B68DAB2EB
:101AF0000C4997F907301201D2B20B4483F8002346
:101B00000AE03B68DAB20849FB7903F00F03043BB3
:101B10001201D2B20B441A7600BF0C37BD4680BC0E
:101B2000704700BF00E100E000ED00E080B489B044
:101B300000AFF860B9607A60FB6803F00703FB61EF
:101B4000FB69C3F10703042B28BF0423BB61FB69B6
:101B50000433062B02D9FB69033B00E000237B61C1
:101B60004FF0FF32BB6902FA03F3DA43BB681A4055
:101B70007B699A404FF0FF317B6901FA03F3D94347
:101B80007B680B40134318462437BD4680BC704722
:101B900080B582B000AF78607868FFF74FFF00BF74
:101BA0000837BD4680BD80B586B000AF0346B9603A
:101BB0007A60FB7300237B61FFF764FF78617A68CA
:101BC000B9687869FFF7B2FF024697F90F301146FE
:101BD0001846FFF781FF00BF1837BD4680BD80B5AE
:101BE00082B000AF0346FB7197F907301846FFF744
:101BF00057FF00BF0837BD4680BD000080B48BB0E2
:101C000000AF7860396000237B6200233B6269E1AA
:101C100001227B6A02FA03F3FB613B681B68FA69E5
:101C20001340BB61BA69FB699A4240F058813B6836
:101C30005B689A4A93425ED0984A934275D8984A14
:101C4000934258D0964A93426FD8964A934252D0C4
:101C5000944A934269D8944A93424CD0924A934210
:101C600063D8924A934246D0904A93425DD8122B51
:101C70002AD8122B59D801A252F823F0F71C0008D9
:101C8000D11C0008E31C0008251D00082B1D0008BE
:101C90002B1D00082B1D00082B1D00082B1D000804
:101CA0002B1D00082B1D00082B1D00082B1D0008F4
:101CB0002B1D00082B1D00082B1D00082B1D0008E4
:101CC000D91C0008ED1C0008794A934213D02CE07F
:101CD0003B68DB683B6229E03B68DB6804333B62BE
:101CE00024E03B68DB6808333B621FE03B68DB684D
:101CF0000C333B621AE03B689B68002B02D1042343
:101D00003B6213E03B689B68012B05D108233B62D3
:101D10007B68FA691A6109E008233B627B68FA690B
:101D20005A6103E000233B6200E000BFBB69FF2B68
:101D300001D87B6801E07B6804337B61BB69FF2BC2
:101D400002D87B6A9B0002E07B6A083B9B003B61F8
:101D50007B691A680F213B6901FA03F3DB431A40E0
:101D6000396A3B6901FA03F31A437B691A603B68DD
:101D70005B6803F08053002B00F0B1804D4B9B69F2
:101D80004C4A43F0010393614A4B9B6903F0010302
:101D9000BB60BB68484A7B6A9B08023352F8233019
:101DA000FB607B6A03F003039B000F2202FA03F33C
:101DB000DB43FA681340FB607B68404A934213D0D0
:101DC0007B683F4A93420DD07B683E4A934207D0DE
:101DD0007B683D4A934201D1032306E0042304E0DB
:101DE000022302E0012300E000237A6A02F00302EA
:101DF00092009340FA681343FB602F497B6A9B086B
:101E00000233FA6841F823203B685B6803F48013CF
:101E1000002B06D02D4B9A682C49BB6913438B606D
:101E200006E02A4B9A68BB69DB43284913408B6064
:101E30003B685B6803F40013002B06D0234BDA6881
:101E40002249BB691343CB6006E0204BDA68BB69CB
:101E5000DB431E491340CB603B685B6803F40033EF
:101E6000002B06D0194B5A681849BB6913434B60C5
:101E700006E0164B5A68BB69DB43144913404B60BC
:101E80003B685B6803F48033002B21D00F4B1A684A
:101E90000E49BB6913430B6021E000BF0000321004
:101EA000000031100000221000002110000012106C
:101EB0000000111000100240000001400008014025
:101EC000000C0140001001400014014000040140DA
:101ED0000B4B1A68BB69DB43094913400B607B6AF3
:101EE00001337B623B681A687B6A22FA03F3002B9A
:101EF0007FF48EAE00BF00BF2C37BD4680BC70475C
:101F00000004014080B483B000AF78600B467B8052
:101F100013467B707B78002B03D07A887B681A612C
:101F200003E07B881A047B681A6100BF0C37BD464A
:101F300080BC704780B582B000AF0346FB80084B81
:101F40005A69FB881340002B06D0054AFB88536171
:101F5000FB88184600F006F800BF0837BD4680BD74
:101F60000004014080B483B000AF0346FB8000BF93
:101F70000C37BD4680BC704780B586B000AF786036
:101F80007B68002B01D1012372E27B681B6803F0A0
:101F90000103002B00F08780924B5B6803F00C0379
:101FA000042B0CD08F4B5B6803F00C03082B12D171
:101FB0008C4B5B6803F48033B3F5803F0BD1894BC6
:101FC0001B6803F40033002B6CD07B685B68002B2C
:101FD00068D101234CE27B685B68B3F5803F06D192
:101FE000804B1B687F4A43F4803313602EE07B688C
:101FF0005B68002B0CD17B4B1B687A4A23F480333F
:102000001360784B1B68774A23F4802313601DE02C
:102010007B685B68B3F5A02F0CD1724B1B68714ACB
:1020200043F4802313606F4B1B686E4A43F4803384
:1020300013600BE06B4B1B686A4A23F48033136018
:10204000684B1B68674A23F4802313607B685B68D6
:10205000002B13D000F020FF386108E000F01CFFD7
:1020600002463B69D31A642B01D9032300E25D4B7E
:102070001B6803F40033002BF0D014E000F00CFFD9
:10208000386108E000F008FF02463B69D31A642B70
:1020900001D90323ECE1534B1B6803F40033002BFD
:1020A000F0D100E000BF7B681B6803F00203002B47
:1020B00063D04C4B5B6803F00C03002B0BD0494BF7
:1020C0005B6803F00C03082B1CD1464B5B6803F4E0
:1020D0008033002B16D1434B1B6803F00203002B07
:1020E00005D07B681B69012B01D00123C0E13D4B6A
:1020F0001B6823F0F8027B685B69DB0039491343F6
:102100000B603AE07B681B69002B20D0364B012224
:102110001A6000F0C1FE386108E000F0BDFE024622
:102120003B69D31A022B01D90323A1E12D4B1B6874
:1021300003F00203002BF0D02A4B1B6823F0F802B7
:102140007B685B69DB00274913430B6015E0264B76
:1021500000221A6000F0A0FE386108E000F09CFE4A
:1021600002463B69D31A022B01D9032380E11D4BA0
:102170001B6803F00203002BF0D17B681B6803F09F
:102180000803002B3AD07B689B69002B19D0174BB2
:1021900001221A6000F080FE386108E000F07CFE49
:1021A00002463B69D31A022B01D9032360E10D4B90
:1021B0005B6A03F00203002BF0D0012000F0FEFA6E
:1021C0001CE00A4B00221A6000F066FE38610FE046
:1021D00000F062FE02463B69D31A022B08D90323A2
:1021E00046E100BF0010024000004242800442422B
:1021F000924B5B6A03F00203002BE9D17B681B68FA
:1022000003F00403002B00F0A6800023FB758B4B2A
:10221000DB6903F08053002B0DD1884BDB69874AC3
:1022200043F08053D361854BDB6903F08053BB607F
:10223000BB680123FB75824B1B6803F48073002B82
:1022400018D17F4B1B687E4A43F48073136000F003
:1022500023FE386108E000F01FFE02463B69D31AF6
:10226000642B01D9032303E1754B1B6803F48073CE
:10227000002BF0D07B68DB68012B06D16F4B1B6A0B
:102280006E4A43F0010313622DE07B68DB68002B8C
:102290000CD16A4B1B6A694A23F001031362674B36
:1022A0001B6A664A23F0040313621CE07B68DB6848
:1022B000052B0CD1614B1B6A604A43F00403136287
:1022C0005E4B1B6A5D4A43F0010313620BE05B4BFC
:1022D0001B6A5A4A23F001031362584B1B6A574A80
:1022E00023F0040313627B68DB68002B15D000F039
:1022F000D3FD38610AE000F0CFFD02463B69D31AF6
:1023000041F28832934201D90323B1E04B4B1B6A5F
:1023100003F00203002BEED014E000F0BDFD3861A5
:102320000AE000F0B9FD02463B69D31A41F2883257
:10233000934201D903239BE0404B1B6A03F0020345
:10234000002BEED1FB7D012B05D13C4BDB693B4AD9
:1023500023F08053D3617B68DB69002B00F087801A
:10236000364B5B6803F00C03082B61D07B68DB699C
:10237000022B46D1334B00221A6000F08DFD3861EC
:1023800008E000F089FD02463B69D31A022B01D90F
:1023900003236DE0294B1B6803F00073002BF0D181
:1023A0007B681B6AB3F5803F08D1244B5B6823F43C
:1023B00000327B689B68214913434B601F4B5B686D
:1023C00023F474127B68196A7B685B6A0B431B49B0
:1023D00013434B601B4B01221A6000F05DFD386116
:1023E00008E000F059FD02463B69D31A022B01D9DF
:1023F00003233DE0114B1B6803F00073002BF0D06A
:1024000035E0104B00221A6000F046FD386108E00C
:1024100000F042FD02463B69D31A022B01D9032387
:1024200026E0064B1B6803F00073002BF0D11EE082
:102430007B68DB69012B07D1012319E00010024002
:1024400000700040600042420B4B5B68FB60FB6821
:1024500003F480327B681B6A9A4206D1FB6803F45E
:1024600070127B685B6A9A4201D0012300E000236E
:1024700018461837BD4680BD0010024080B584B0B4
:1024800000AF786039607B68002B01D10123D0E078
:102490006A4B1B6803F007033A689A4210D9674BEE
:1024A0001B6823F0070265493B6813430B60634BCD
:1024B0001B6803F007033A689A4201D00123B8E091
:1024C0007B681B6803F00203002B20D07B681B682D
:1024D00003F00403002B05D0594B5B68584A43F4C2
:1024E000E06353607B681B6803F00803002B05D092
:1024F000534B5B68524A43F460535360504B5B68E4
:1025000023F0F0027B689B684D4913434B607B6866
:102510001B6803F00103002B40D07B685B68012B34
:1025200007D1474B1B6803F40033002B15D101235F
:102530007FE07B685B68022B07D1414B1B6803F08F
:102540000073002B09D1012373E03D4B1B6803F09E
:102550000203002B01D101236BE0394B5B6823F0B0
:1025600003027B685B68364913434B6000F094FCC0
:10257000F8600AE000F090FC0246FB68D31A41F2D2
:102580008832934201D9032353E02D4B5B6803F05B
:102590000C027B685B689B009A42EBD1274B1B685F
:1025A00003F007033A689A4210D2244B1B6823F0C9
:1025B000070222493B6813430B60204B1B6803F062
:1025C00007033A689A4201D0012332E07B681B6816
:1025D00003F00403002B08D0194B5B6823F4E0627E
:1025E0007B68DB68164913434B607B681B6803F00C
:1025F0000803002B09D0124B5B6823F460527B6800
:102600001B69DB000E4913434B6000F021F80246C2
:102610000B4B5B681B0903F00F030A49CB5C22FAE2
:1026200003F3094A1360094B1B681846FDF73CFF8A
:10263000002318461037BD4680BD00BF0020024071
:1026400000100240A4300008000000200800002014
:1026500080B487B000AF0023FB600023BB60002381
:102660007B6100237B6000233B611E4B5B68FB604A
:10267000FB6803F00C03042B02D0082B03D027E0E7
:10268000194B3B6127E0FB689B0C03F00F03174AD3
:10269000D35C7B60FB6803F48033002B10D0114BBC
:1026A0005B685B0C03F00103114AD35CBB607B6881
:1026B0000D4A03FB02F2BB68B2FBF3F37B6104E05B
:1026C0007B680C4A02FB03F37B617B693B6102E0A0
:1026D000054B3B6100BF3B6918461C37BD4680BCBB
:1026E000704700BF0010024000127A00BC300008A2
:1026F000CC30000800093D0080B400AF024B1B68DD
:102700001846BD4680BC70470000002080B500AF71
:10271000FFF7F2FF0246054B5B681B0A03F0070355
:102720000349CB5C22FA03F3184680BD0010024037
:10273000B430000880B500AFFFF7DEFF0246054B5E
:102740005B68DB0A03F007030349CB5C22FA03F35F
:10275000184680BD00100240B430000880B483B039
:1027600000AF786039607B680F221A60114B5B689C
:1027700003F003027B685A600E4B5B6803F0F002C3
:102780007B689A600B4B5B6803F4E0627B68DA60FD
:10279000084B5B68DB0803F4E0627B681A61064B58
:1027A0001B6803F007023B681A6000BF0C37BD4688
:1027B00080BC7047001002400020024080B485B009
:1027C00000AF78600A4B1B680A4AA2FB03235B0A2E
:1027D0007A6802FB03F3FB6000BFFB685A1EFA60D5
:1027E000002BF9D100BF00BF1437BD4680BC704735
:1027F00000000020D34D621080B483B000AF786039
:1028000000BF0C37BD4680BC704780B483B000AFBA
:10281000786000BF0C37BD4680BC704780B582B081
:1028200000AF78607B68002B01D1012341E07B6819
:1028300093F83D30DBB2002B06D17B68002283F891
:102840003C20786800F039F87B68022283F83D204C
:102850007B681A687B6804331946104600F0B4F9A7
:102860007B68012283F846207B68012283F83E20A2
:102870007B68012283F83F207B68012283F8402097
:102880007B68012283F841207B68012283F8422083
:102890007B68012283F843207B68012283F844206F
:1028A0007B68012283F845207B68012283F83D2064
:1028B000002318460837BD4680BD80B483B000AF02
:1028C000786000BF0C37BD4680BC704780B485B0CF
:1028D00000AF78607B6893F83D30DBB2012B01D00C
:1028E00001233AE07B68022283F83D207B681B6865
:1028F000DA687B681B6842F00102DA607B681B685B
:10290000184A93420ED07B681B68B3F1804F09D000
:102910007B681B68144A934204D07B681B68134A87
:10292000934211D17B681B689B6803F00703FB602F
:10293000FB68062B10D07B681B681A687B681B68D5
:1029400042F001021A6007E07B681B681A687B6826
:102950001B6842F001021A60002318461437BD4676
:1029600080BC7047002C014000040040000800407B
:1029700080B582B000AF78607B681B681B6903F08C
:102980000203022B22D17B681B68DB6803F0020381
:10299000022B1BD17B681B686FF002021A617B68F7
:1029A00001221A777B681B689B6903F00303002BE5
:1029B00003D0786800F0EDF805E0786800F0E0F802
:1029C000786800F0EFF87B6800221A777B681B6854
:1029D0001B6903F00403042B22D17B681B68DB68AE
:1029E00003F00403042B1BD17B681B686FF0040207
:1029F0001A617B6802221A777B681B689B6903F463
:102A00004073002B03D0786800F0C3F805E07868C5
:102A100000F0B6F8786800F0C5F87B6800221A77F5
:102A20007B681B681B6903F00803082B22D17B68B5
:102A30001B68DB6803F00803082B1BD17B681B684D
:102A40006FF008021A617B6804221A777B681B68A2
:102A5000DB6903F00303002B03D0786800F099F8DA
:102A600005E0786800F08CF8786800F09BF87B68E7
:102A700000221A777B681B681B6903F01003102B78
:102A800022D17B681B68DB6803F01003102B1BD17D
:102A90007B681B686FF010021A617B6808221A7746
:102AA0007B681B68DB6903F44073002B03D07868F4
:102AB00000F06FF805E0786800F062F8786800F0E0
:102AC00071F87B6800221A777B681B681B6903F02A
:102AD0000103012B0ED17B681B68DB6803F0010347
:102AE000012B07D17B681B686FF001021A617868BF
:102AF000FDF74CFC7B681B681B6903F08003802B8F
:102B00000ED17B681B68DB6803F08003802B07D144
:102B10007B681B686FF080021A617868FFF775FEAA
:102B20007B681B681B6903F04003402B0ED17B6858
:102B30001B68DB6803F04003402B07D17B681B68F0
:102B40006FF040021A61786800F035F87B681B6806
:102B50001B6903F02003202B0ED17B681B68DB6808
:102B600003F02003202B07D17B681B686FF0200245
:102B70001A617868FFF740FE00BF0837BD4680BD88
:102B800080B483B000AF786000BF0C37BD4680BC16
:102B9000704780B483B000AF786000BF0C37BD468B
:102BA00080BC704780B483B000AF786000BF0C3742
:102BB000BD4680BC704780B483B000AF786000BF72
:102BC0000C37BD4680BC704780B485B000AF7860DC
:102BD00039607B681B68FB607B68294A93420BD095
:102BE0007B68B3F1804F07D07B68264A934203D0BD
:102BF0007B68254A934208D1FB6823F07003FB6091
:102C00003B685B68FA681343FB607B681C4A93422D
:102C10000BD07B68B3F1804F07D07B68194A934291
:102C200003D07B68184A934208D1FB6823F44073B1
:102C3000FB603B68DB68FA681343FB60FB6823F0CA
:102C400080023B685B691343FB607B68FA681A602B
:102C50003B689A687B68DA623B681A687B689A62AC
:102C60007B68074A934203D13B681A697B681A6301
:102C70007B6801225A6100BF1437BD4680BC704793
:102C8000002C0140000400400008004080B582B0E4
:102C900000AF78607B68002B01D1012342E07B68A4
:102CA00093F84130DBB2002B06D17B68002283F819
:102CB00040207868FDF7BAFB7B68242283F8412026
:102CC0007B681B68DA687B681B6822F40052DA6054
:102CD000786800F02BF87B681B681A697B681B68B2
:102CE00022F490421A617B681B685A697B681B68F2
:102CF00022F02A025A617B681B68DA687B681B68CD
:102D000042F40052DA607B6800225A647B68202219
:102D100083F841207B68202283F842207B680022D0
:102D20005A63002318460837BD4680BD80B584B07D
:102D300000AF78607B681B681B6923F440517B6897
:102D4000DA687B681B680A431A617B689A687B684B
:102D50001B691A437B685B691343BB607B681B6814
:102D6000DB6823F4B05323F00C037A681268B96867
:102D70000B43D3607B681B685B6923F440717B68FD
:102D80009A697B681B680A435A617B681B682C4AF6
:102D9000934203D1FFF7CEFCF86002E0FFF7B6FCE8
:102DA000F860FA6813469B0013449A001A447B6843
:102DB0005B689B00B2FBF3F3224AA2FB03235B098F
:102DC0001901FA6813469B0013449A001A447B6861
:102DD0005B689B00B2FBF3F21A4BA3FB02035B0997
:102DE000642000FB03F3D31A1B013233154AA2FB04
:102DF00003235B0903F0F0031944FA6813469B00B0
:102E000013449A001A447B685B689B00B2FBF3F2A0
:102E10000C4BA3FB02035B09642000FB03F3D31AF2
:102E20001B013233074AA2FB03235B0903F00F02A5
:102E30007B681B680A449A6000BF1037BD4680BD9E
:102E4000003801401F85EB5180B500AF084B1B686F
:102E5000074A43F0100313600320FEF799FE0F208A
:102E6000FDF722FBFDF7AAFA0023184680BD00BF3C
:102E70000020024080B400AF054B1B781A46054B7A
:102E80001B681344034A136000BFBD4680BC7047F3
:102E90000C000020FC10002080B400AF024B1B6827
:102EA0001846BD4680BC7047FC1000200346024413
:102EB000934200D1704703F8011BF9E7294B70B525
:102EC0001B68044683424BD0C36943B1DB68002BC7
:102ED00044D1E369196811B1204600F06BF86169CB
:102EE00011B1204600F066F8E16911B1204600F00A
:102EF00061F8216B11B1204600F05CF8616B11B1F3
:102F0000204600F057F8A16B11B1204600F052F8AE
:102F1000A16C11B1204600F04DF8616C11B1204652
:102F200000F048F8E16A11B1204600F043F8236A46
:102F3000B3B12046BDE870401847495941B904353E
:102F4000E369802DD968F8D1204600F033F8C0E756
:102F50000E68204600F02EF83146EFE70025EFE737
:102F600070BD00BF5C00002070B500260C4D0D4CFC
:102F7000641BA410A64209D100F070F800260A4D87
:102F80000A4C641BA410A64205D170BD55F8043B41
:102F900098470136EEE755F8043B98470136F2E7CB
:102FA000D0300008D0300008D0300008D4300008FD
:102FB0007047704738B50546002940D051F8043CA9
:102FC0000C1F002BB8BFE41800F03CF81C4A136833
:102FD00033B9636014602846BDE8384000F038B863
:102FE000A34208D9206821188B4201BF19685B6889
:102FF00009182160EDE71A465B680BB1A342FAD9C4
:1030000011685018A0420BD1206801445018834227
:103010001160E0D118685B68084410605360DAE71B
:1030200002D90C232B60D6E7206821188B4201BF00
:1030300019685B680918216063605460CBE738BD8C
:103040003C1200200148FFF7B3BF00BF3812002038
:103050000148FFF7AEBF00BF38120020F8B500BF2F
:10306000F8BC08BC9E467047F8B500BFF8BC08BC69
:043070009E467047C1
:1030740064656661756C745461736B007430000828
:103084007D03000800000000000000008000000034
:10309400000000000000000049444C45000000000E
:1030A40000000000000000000102030406070809F4
:1030B40000000000010203040203040506070809D6
:0C30C4000A0B0C0D0E0F10100102000092
:0430D00035010008BE
:0430D40011010008DE
:1030D8000024F400AAAAAAAA100000000100000017
:1030E800000000000011002068110020D01100200D
:1030F80000000000000000000000000000000000C8
:1031080000000000000000000000000000000000B7
:1031180000000000000000000000000000000000A7
:103128000000000000000000000000001000002067
:04000005080005E901
:00000001FF
